{
  "_format": "hh-sol-artifact-1",
  "contractName": "Tancy",
  "sourceName": "contracts/Tancy.sol",
  "abi": [
    {
      "inputs": [],
      "stateMutability": "nonpayable",
      "type": "constructor"
    },
    {
      "inputs": [
        {
          "internalType": "address",
          "name": "owner",
          "type": "address"
        }
      ],
      "name": "OwnableInvalidOwner",
      "type": "error"
    },
    {
      "inputs": [
        {
          "internalType": "address",
          "name": "account",
          "type": "address"
        }
      ],
      "name": "OwnableUnauthorizedAccount",
      "type": "error"
    },
    {
      "anonymous": false,
      "inputs": [
        {
          "indexed": true,
          "internalType": "address",
          "name": "previousOwner",
          "type": "address"
        },
        {
          "indexed": true,
          "internalType": "address",
          "name": "newOwner",
          "type": "address"
        }
      ],
      "name": "OwnershipTransferred",
      "type": "event"
    },
    {
      "inputs": [],
      "name": "FreeTimeline",
      "outputs": [
        {
          "internalType": "uint256",
          "name": "",
          "type": "uint256"
        }
      ],
      "stateMutability": "view",
      "type": "function"
    },
    {
      "inputs": [
        {
          "internalType": "address",
          "name": "_new",
          "type": "address"
        }
      ],
      "name": "addToGroupNew",
      "outputs": [],
      "stateMutability": "nonpayable",
      "type": "function"
    },
    {
      "inputs": [
        {
          "internalType": "address",
          "name": "",
          "type": "address"
        }
      ],
      "name": "consultingGroups",
      "outputs": [
        {
          "internalType": "uint256",
          "name": "wallet",
          "type": "uint256"
        }
      ],
      "stateMutability": "view",
      "type": "function"
    },
    {
      "inputs": [],
      "name": "deposit",
      "outputs": [],
      "stateMutability": "payable",
      "type": "function"
    },
    {
      "inputs": [
        {
          "internalType": "address",
          "name": "",
          "type": "address"
        }
      ],
      "name": "deposited",
      "outputs": [
        {
          "internalType": "bool",
          "name": "",
          "type": "bool"
        }
      ],
      "stateMutability": "view",
      "type": "function"
    },
    {
      "inputs": [],
      "name": "getGroup",
      "outputs": [
        {
          "internalType": "address[]",
          "name": "",
          "type": "address[]"
        }
      ],
      "stateMutability": "view",
      "type": "function"
    },
    {
      "inputs": [],
      "name": "groupsAllowed",
      "outputs": [
        {
          "internalType": "uint256",
          "name": "",
          "type": "uint256"
        }
      ],
      "stateMutability": "view",
      "type": "function"
    },
    {
      "inputs": [],
      "name": "groupsCounter",
      "outputs": [
        {
          "internalType": "uint256",
          "name": "",
          "type": "uint256"
        }
      ],
      "stateMutability": "view",
      "type": "function"
    },
    {
      "inputs": [],
      "name": "owner",
      "outputs": [
        {
          "internalType": "address",
          "name": "",
          "type": "address"
        }
      ],
      "stateMutability": "view",
      "type": "function"
    },
    {
      "inputs": [],
      "name": "permissionless",
      "outputs": [
        {
          "internalType": "bool",
          "name": "",
          "type": "bool"
        }
      ],
      "stateMutability": "view",
      "type": "function"
    },
    {
      "inputs": [
        {
          "internalType": "address",
          "name": "_remove",
          "type": "address"
        }
      ],
      "name": "removeFromGroup",
      "outputs": [],
      "stateMutability": "nonpayable",
      "type": "function"
    },
    {
      "inputs": [],
      "name": "renounceOwnership",
      "outputs": [],
      "stateMutability": "nonpayable",
      "type": "function"
    },
    {
      "inputs": [
        {
          "internalType": "uint256",
          "name": "_groupsAllowed",
          "type": "uint256"
        }
      ],
      "name": "setGroupNumberAllowed",
      "outputs": [],
      "stateMutability": "nonpayable",
      "type": "function"
    },
    {
      "inputs": [],
      "name": "setPermisionless",
      "outputs": [],
      "stateMutability": "nonpayable",
      "type": "function"
    },
    {
      "inputs": [
        {
          "internalType": "address",
          "name": "newOwner",
          "type": "address"
        }
      ],
      "name": "transferOwnership",
      "outputs": [],
      "stateMutability": "nonpayable",
      "type": "function"
    },
    {
      "inputs": [
        {
          "internalType": "address",
          "name": "_owner",
          "type": "address"
        }
      ],
      "name": "withdraw",
      "outputs": [],
      "stateMutability": "nonpayable",
      "type": "function"
    }
  ],
  "bytecode": "0x6080604052601e60035560056004553480156200001b57600080fd5b5033600073ffffffffffffffffffffffffffffffffffffffff168173ffffffffffffffffffffffffffffffffffffffff1603620000925760006040517f1e4fbdf7000000000000000000000000000000000000000000000000000000008152600401620000899190620001b3565b60405180910390fd5b620000a381620000aa60201b60201c565b50620001d0565b60008060009054906101000a900473ffffffffffffffffffffffffffffffffffffffff169050816000806101000a81548173ffffffffffffffffffffffffffffffffffffffff021916908373ffffffffffffffffffffffffffffffffffffffff1602179055508173ffffffffffffffffffffffffffffffffffffffff168173ffffffffffffffffffffffffffffffffffffffff167f8be0079c531659141344cd1fd0a4f28419497f9722a3daafe3b4186f6b6457e060405160405180910390a35050565b600073ffffffffffffffffffffffffffffffffffffffff82169050919050565b60006200019b826200016e565b9050919050565b620001ad816200018e565b82525050565b6000602082019050620001ca6000830184620001a2565b92915050565b61168080620001e06000396000f3fe6080604052600436106100f35760003560e01c80638da5cb5b1161008a578063d0e30db011610059578063d0e30db0146102e0578063d6fa0427146102ea578063e664a87c14610313578063f2fde38b14610350576100f3565b80638da5cb5b146102245780639e3948aa1461024f578063a1256f9f14610278578063cb13cddb146102a3576100f3565b80634b79c074116100c65780634b79c074146101a257806351cff8d9146101cd5780636ada0bba146101f6578063715018a61461020d576100f3565b8063078b4902146100f857806310b9dc3c1461012357806314b3f4031461014e578063425e0d0f14610179575b600080fd5b34801561010457600080fd5b5061010d610379565b60405161011a9190611031565b60405180910390f35b34801561012f57600080fd5b5061013861037f565b6040516101459190611031565b60405180910390f35b34801561015a57600080fd5b50610163610385565b6040516101709190611031565b60405180910390f35b34801561018557600080fd5b506101a0600480360381019061019b91906110af565b61038b565b005b3480156101ae57600080fd5b506101b76106e2565b6040516101c4919061119a565b60405180910390f35b3480156101d957600080fd5b506101f460048036038101906101ef91906110af565b6107b0565b005b34801561020257600080fd5b5061020b610aae565b005b34801561021957600080fd5b50610222610ad3565b005b34801561023057600080fd5b50610239610ae7565b60405161024691906111cb565b60405180910390f35b34801561025b57600080fd5b50610276600480360381019061027191906110af565b610b10565b005b34801561028457600080fd5b5061028d610ca2565b60405161029a9190611201565b60405180910390f35b3480156102af57600080fd5b506102ca60048036038101906102c591906110af565b610cb5565b6040516102d79190611201565b60405180910390f35b6102e8610cd5565b005b3480156102f657600080fd5b50610311600480360381019061030c9190611248565b610e0f565b005b34801561031f57600080fd5b5061033a600480360381019061033591906110af565b610e21565b6040516103479190611031565b60405180910390f35b34801561035c57600080fd5b50610377600480360381019061037291906110af565b610e3f565b005b60035481565b60055481565b60045481565b600073ffffffffffffffffffffffffffffffffffffffff168173ffffffffffffffffffffffffffffffffffffffff16036103fa576040517f08c379a00000000000000000000000000000000000000000000000000000000081526004016103f1906112d2565b60405180910390fd5b6000600160003373ffffffffffffffffffffffffffffffffffffffff1673ffffffffffffffffffffffffffffffffffffffff1681526020019081526020016000209050426003548260020160008573ffffffffffffffffffffffffffffffffffffffff1673ffffffffffffffffffffffffffffffffffffffff1681526020019081526020016000205461048d9190611321565b1015610542576000816000018054905082600101546104ac9190611384565b905060008373ffffffffffffffffffffffffffffffffffffffff16826040516104d4906113e6565b60006040518083038185875af1925050503d8060008114610511576040519150601f19603f3d011682016040523d82523d6000602084013e610516565b606091505b505090508061052457600080fd5b8183600101600082825461053891906113fb565b9250508190555050505b60005b81600001805490508110156106dc578273ffffffffffffffffffffffffffffffffffffffff168260000182815481106105815761058061142f565b5b9060005260206000200160009054906101000a900473ffffffffffffffffffffffffffffffffffffffff1673ffffffffffffffffffffffffffffffffffffffff16036106c95781600001600183600001805490506105df91906113fb565b815481106105f0576105ef61142f565b5b9060005260206000200160009054906101000a900473ffffffffffffffffffffffffffffffffffffffff168260000182815481106106315761063061142f565b5b9060005260206000200160006101000a81548173ffffffffffffffffffffffffffffffffffffffff021916908373ffffffffffffffffffffffffffffffffffffffff1602179055508160000180548061068d5761068c61145e565b5b6001900381819060005260206000200160006101000a81549073ffffffffffffffffffffffffffffffffffffffff0219169055905550506106df565b80806106d49061148d565b915050610545565b50505b50565b6060600160003373ffffffffffffffffffffffffffffffffffffffff1673ffffffffffffffffffffffffffffffffffffffff1681526020019081526020016000206000018054806020026020016040519081016040528092919081815260200182805480156107a657602002820191906000526020600020905b8160009054906101000a900473ffffffffffffffffffffffffffffffffffffffff1673ffffffffffffffffffffffffffffffffffffffff168152602001906001019080831161075c575b5050505050905090565b6000600160008373ffffffffffffffffffffffffffffffffffffffff1673ffffffffffffffffffffffffffffffffffffffff16815260200190815260200160002090506000805b8260000180549050811015610895573373ffffffffffffffffffffffffffffffffffffffff168360000182815481106108335761083261142f565b5b9060005260206000200160009054906101000a900473ffffffffffffffffffffffffffffffffffffffff1673ffffffffffffffffffffffffffffffffffffffff16036108825760019150610895565b808061088d9061148d565b9150506107f7565b50806108d6576040517f08c379a00000000000000000000000000000000000000000000000000000000081526004016108cd90611521565b60405180910390fd5b6000826000018054905083600101546108ef9190611384565b905060008360000180549050846001015461090a9190611541565b905060005b8460000180549050811015610aa65760008390506000820361093a5782816109379190611321565b90505b60008660000183815481106109525761095161142f565b5b9060005260206000200160009054906101000a900473ffffffffffffffffffffffffffffffffffffffff1673ffffffffffffffffffffffffffffffffffffffff16826040516109a0906113e6565b60006040518083038185875af1925050503d80600081146109dd576040519150601f19603f3d011682016040523d82523d6000602084013e6109e2565b606091505b50509050806109f057600080fd5b42876002016000896000018681548110610a0d57610a0c61142f565b5b9060005260206000200160009054906101000a900473ffffffffffffffffffffffffffffffffffffffff1673ffffffffffffffffffffffffffffffffffffffff1673ffffffffffffffffffffffffffffffffffffffff1681526020019081526020016000208190555081876001016000828254610a8a91906113fb565b9250508190555050508080610a9e9061148d565b91505061090f565b505050505050565b610ab6610ec5565b6001600660006101000a81548160ff021916908315150217905550565b610adb610ec5565b610ae56000610f4c565b565b60008060009054906101000a900473ffffffffffffffffffffffffffffffffffffffff16905090565b6000600160003373ffffffffffffffffffffffffffffffffffffffff1673ffffffffffffffffffffffffffffffffffffffff1681526020019081526020016000209050600260003373ffffffffffffffffffffffffffffffffffffffff1673ffffffffffffffffffffffffffffffffffffffff16815260200190815260200160002060009054906101000a900460ff16610ba957600080fd5b6005816000018054905010610bf3576040517f08c379a0000000000000000000000000000000000000000000000000000000008152600401610bea906115be565b60405180910390fd5b80600001829080600181540180825580915050600190039060005260206000200160009091909190916101000a81548173ffffffffffffffffffffffffffffffffffffffff021916908373ffffffffffffffffffffffffffffffffffffffff160217905550428160020160008473ffffffffffffffffffffffffffffffffffffffff1673ffffffffffffffffffffffffffffffffffffffff168152602001908152602001600020819055505050565b600660009054906101000a900460ff1681565b60026020528060005260406000206000915054906101000a900460ff1681565b6000341015610d19576040517f08c379a0000000000000000000000000000000000000000000000000000000008152600401610d109061162a565b60405180910390fd5b6000600160003373ffffffffffffffffffffffffffffffffffffffff1673ffffffffffffffffffffffffffffffffffffffff1681526020019081526020016000209050600660009054906101000a900460ff16610d995760045460055410610d8057600080fd5b60056000815480929190610d939061148d565b91905055505b34816001016000828254610dad9190611321565b925050819055506001600260003373ffffffffffffffffffffffffffffffffffffffff1673ffffffffffffffffffffffffffffffffffffffff16815260200190815260200160002060006101000a81548160ff02191690831515021790555050565b610e17610ec5565b8060048190555050565b60016020528060005260406000206000915090508060010154905081565b610e47610ec5565b600073ffffffffffffffffffffffffffffffffffffffff168173ffffffffffffffffffffffffffffffffffffffff1603610eb95760006040517f1e4fbdf7000000000000000000000000000000000000000000000000000000008152600401610eb091906111cb565b60405180910390fd5b610ec281610f4c565b50565b610ecd611010565b73ffffffffffffffffffffffffffffffffffffffff16610eeb610ae7565b73ffffffffffffffffffffffffffffffffffffffff1614610f4a57610f0e611010565b6040517f118cdaa7000000000000000000000000000000000000000000000000000000008152600401610f4191906111cb565b60405180910390fd5b565b60008060009054906101000a900473ffffffffffffffffffffffffffffffffffffffff169050816000806101000a81548173ffffffffffffffffffffffffffffffffffffffff021916908373ffffffffffffffffffffffffffffffffffffffff1602179055508173ffffffffffffffffffffffffffffffffffffffff168173ffffffffffffffffffffffffffffffffffffffff167f8be0079c531659141344cd1fd0a4f28419497f9722a3daafe3b4186f6b6457e060405160405180910390a35050565b600033905090565b6000819050919050565b61102b81611018565b82525050565b60006020820190506110466000830184611022565b92915050565b600080fd5b600073ffffffffffffffffffffffffffffffffffffffff82169050919050565b600061107c82611051565b9050919050565b61108c81611071565b811461109757600080fd5b50565b6000813590506110a981611083565b92915050565b6000602082840312156110c5576110c461104c565b5b60006110d38482850161109a565b91505092915050565b600081519050919050565b600082825260208201905092915050565b6000819050602082019050919050565b61111181611071565b82525050565b60006111238383611108565b60208301905092915050565b6000602082019050919050565b6000611147826110dc565b61115181856110e7565b935061115c836110f8565b8060005b8381101561118d5781516111748882611117565b975061117f8361112f565b925050600181019050611160565b5085935050505092915050565b600060208201905081810360008301526111b4818461113c565b905092915050565b6111c581611071565b82525050565b60006020820190506111e060008301846111bc565b92915050565b60008115159050919050565b6111fb816111e6565b82525050565b600060208201905061121660008301846111f2565b92915050565b61122581611018565b811461123057600080fd5b50565b6000813590506112428161121c565b92915050565b60006020828403121561125e5761125d61104c565b5b600061126c84828501611233565b91505092915050565b600082825260208201905092915050565b7f496e76616c696420636f617574686f7220616464726573730000000000000000600082015250565b60006112bc601883611275565b91506112c782611286565b602082019050919050565b600060208201905081810360008301526112eb816112af565b9050919050565b7f4e487b7100000000000000000000000000000000000000000000000000000000600052601160045260246000fd5b600061132c82611018565b915061133783611018565b925082820190508082111561134f5761134e6112f2565b5b92915050565b7f4e487b7100000000000000000000000000000000000000000000000000000000600052601260045260246000fd5b600061138f82611018565b915061139a83611018565b9250826113aa576113a9611355565b5b828204905092915050565b600081905092915050565b50565b60006113d06000836113b5565b91506113db826113c0565b600082019050919050565b60006113f1826113c3565b9150819050919050565b600061140682611018565b915061141183611018565b9250828203905081811115611429576114286112f2565b5b92915050565b7f4e487b7100000000000000000000000000000000000000000000000000000000600052603260045260246000fd5b7f4e487b7100000000000000000000000000000000000000000000000000000000600052603160045260246000fd5b600061149882611018565b91507fffffffffffffffffffffffffffffffffffffffffffffffffffffffffffffffff82036114ca576114c96112f2565b5b600182019050919050565b7f596f7520617265206e6f7420696e207468652067726f75700000000000000000600082015250565b600061150b601883611275565b9150611516826114d5565b602082019050919050565b6000602082019050818103600083015261153a816114fe565b9050919050565b600061154c82611018565b915061155783611018565b92508261156757611566611355565b5b828206905092915050565b7f6669766520697320746865206d6f737420796f752063616e2068617665000000600082015250565b60006115a8601d83611275565b91506115b382611572565b602082019050919050565b600060208201905081810360008301526115d78161159b565b9050919050565b7f4e6f7420656e6f75676820657468210000000000000000000000000000000000600082015250565b6000611614600f83611275565b915061161f826115de565b602082019050919050565b6000602082019050818103600083015261164381611607565b905091905056fea26469706673582212208095efce062a00b70ff1d88589e859701075a9a9f556276406eae13a7b4b1d3b64736f6c63430008140033",
  "linkReferences": {},
  "deployedLinkReferences": {}
}